{
  "_format": "hh-sol-artifact-1",
  "contractName": "EducationNFT",
  "sourceName": "contracts/educationNFT.sol",
  "abi": [
    {
      "inputs": [],
      "stateMutability": "nonpayable",
      "type": "constructor"
    },
    {
      "anonymous": false,
      "inputs": [
        {
          "indexed": true,
          "internalType": "address",
          "name": "student",
          "type": "address"
        },
        {
          "indexed": true,
          "internalType": "uint256",
          "name": "tokenId",
          "type": "uint256"
        },
        {
          "indexed": false,
          "internalType": "string",
          "name": "activityName",
          "type": "string"
        }
      ],
      "name": "AchievementMinted",
      "type": "event"
    },
    {
      "anonymous": false,
      "inputs": [
        {
          "indexed": true,
          "internalType": "address",
          "name": "admin",
          "type": "address"
        }
      ],
      "name": "AdminAuthorized",
      "type": "event"
    },
    {
      "anonymous": false,
      "inputs": [
        {
          "indexed": true,
          "internalType": "address",
          "name": "admin",
          "type": "address"
        }
      ],
      "name": "AdminRevoked",
      "type": "event"
    },
    {
      "anonymous": false,
      "inputs": [
        {
          "indexed": true,
          "internalType": "address",
          "name": "owner",
          "type": "address"
        },
        {
          "indexed": true,
          "internalType": "address",
          "name": "approved",
          "type": "address"
        },
        {
          "indexed": true,
          "internalType": "uint256",
          "name": "tokenId",
          "type": "uint256"
        }
      ],
      "name": "Approval",
      "type": "event"
    },
    {
      "anonymous": false,
      "inputs": [
        {
          "indexed": true,
          "internalType": "address",
          "name": "owner",
          "type": "address"
        },
        {
          "indexed": true,
          "internalType": "address",
          "name": "operator",
          "type": "address"
        },
        {
          "indexed": false,
          "internalType": "bool",
          "name": "approved",
          "type": "bool"
        }
      ],
      "name": "ApprovalForAll",
      "type": "event"
    },
    {
      "anonymous": false,
      "inputs": [
        {
          "indexed": false,
          "internalType": "uint256",
          "name": "_fromTokenId",
          "type": "uint256"
        },
        {
          "indexed": false,
          "internalType": "uint256",
          "name": "_toTokenId",
          "type": "uint256"
        }
      ],
      "name": "BatchMetadataUpdate",
      "type": "event"
    },
    {
      "anonymous": false,
      "inputs": [
        {
          "indexed": false,
          "internalType": "uint256",
          "name": "_tokenId",
          "type": "uint256"
        }
      ],
      "name": "MetadataUpdate",
      "type": "event"
    },
    {
      "anonymous": false,
      "inputs": [
        {
          "indexed": true,
          "internalType": "address",
          "name": "previousOwner",
          "type": "address"
        },
        {
          "indexed": true,
          "internalType": "address",
          "name": "newOwner",
          "type": "address"
        }
      ],
      "name": "OwnershipTransferred",
      "type": "event"
    },
    {
      "anonymous": false,
      "inputs": [
        {
          "indexed": true,
          "internalType": "address",
          "name": "from",
          "type": "address"
        },
        {
          "indexed": true,
          "internalType": "address",
          "name": "to",
          "type": "address"
        },
        {
          "indexed": true,
          "internalType": "uint256",
          "name": "tokenId",
          "type": "uint256"
        }
      ],
      "name": "Transfer",
      "type": "event"
    },
    {
      "inputs": [
        {
          "internalType": "uint256",
          "name": "",
          "type": "uint256"
        }
      ],
      "name": "achievementArray",
      "outputs": [
        {
          "internalType": "string",
          "name": "activityName",
          "type": "string"
        },
        {
          "internalType": "string",
          "name": "activityType",
          "type": "string"
        },
        {
          "internalType": "uint256",
          "name": "timestamp",
          "type": "uint256"
        },
        {
          "internalType": "address",
          "name": "issuedBy",
          "type": "address"
        }
      ],
      "stateMutability": "view",
      "type": "function"
    },
    {
      "inputs": [
        {
          "internalType": "uint256",
          "name": "",
          "type": "uint256"
        }
      ],
      "name": "achievements",
      "outputs": [
        {
          "internalType": "string",
          "name": "activityName",
          "type": "string"
        },
        {
          "internalType": "string",
          "name": "activityType",
          "type": "string"
        },
        {
          "internalType": "uint256",
          "name": "timestamp",
          "type": "uint256"
        },
        {
          "internalType": "address",
          "name": "issuedBy",
          "type": "address"
        }
      ],
      "stateMutability": "view",
      "type": "function"
    },
    {
      "inputs": [
        {
          "internalType": "address",
          "name": "to",
          "type": "address"
        },
        {
          "internalType": "uint256",
          "name": "tokenId",
          "type": "uint256"
        }
      ],
      "name": "approve",
      "outputs": [],
      "stateMutability": "nonpayable",
      "type": "function"
    },
    {
      "inputs": [
        {
          "internalType": "address",
          "name": "admin",
          "type": "address"
        }
      ],
      "name": "authorizeAdmin",
      "outputs": [],
      "stateMutability": "nonpayable",
      "type": "function"
    },
    {
      "inputs": [
        {
          "internalType": "address",
          "name": "owner",
          "type": "address"
        }
      ],
      "name": "balanceOf",
      "outputs": [
        {
          "internalType": "uint256",
          "name": "",
          "type": "uint256"
        }
      ],
      "stateMutability": "view",
      "type": "function"
    },
    {
      "inputs": [
        {
          "internalType": "uint256",
          "name": "tokenId",
          "type": "uint256"
        }
      ],
      "name": "getAchievement",
      "outputs": [
        {
          "components": [
            {
              "internalType": "string",
              "name": "activityName",
              "type": "string"
            },
            {
              "internalType": "string",
              "name": "activityType",
              "type": "string"
            },
            {
              "internalType": "uint256",
              "name": "timestamp",
              "type": "uint256"
            },
            {
              "internalType": "address",
              "name": "issuedBy",
              "type": "address"
            }
          ],
          "internalType": "struct EducationNFT.Achievement",
          "name": "",
          "type": "tuple"
        }
      ],
      "stateMutability": "view",
      "type": "function"
    },
    {
      "inputs": [],
      "name": "getAllAchievements",
      "outputs": [
        {
          "components": [
            {
              "internalType": "string",
              "name": "activityName",
              "type": "string"
            },
            {
              "internalType": "string",
              "name": "activityType",
              "type": "string"
            },
            {
              "internalType": "uint256",
              "name": "timestamp",
              "type": "uint256"
            },
            {
              "internalType": "address",
              "name": "issuedBy",
              "type": "address"
            }
          ],
          "internalType": "struct EducationNFT.Achievement[]",
          "name": "",
          "type": "tuple[]"
        }
      ],
      "stateMutability": "view",
      "type": "function"
    },
    {
      "inputs": [
        {
          "internalType": "uint256",
          "name": "tokenId",
          "type": "uint256"
        }
      ],
      "name": "getApproved",
      "outputs": [
        {
          "internalType": "address",
          "name": "",
          "type": "address"
        }
      ],
      "stateMutability": "view",
      "type": "function"
    },
    {
      "inputs": [
        {
          "internalType": "address",
          "name": "student",
          "type": "address"
        }
      ],
      "name": "getStudentAchievements",
      "outputs": [
        {
          "components": [
            {
              "internalType": "string",
              "name": "activityName",
              "type": "string"
            },
            {
              "internalType": "string",
              "name": "activityType",
              "type": "string"
            },
            {
              "internalType": "uint256",
              "name": "timestamp",
              "type": "uint256"
            },
            {
              "internalType": "address",
              "name": "issuedBy",
              "type": "address"
            }
          ],
          "internalType": "struct EducationNFT.Achievement[]",
          "name": "",
          "type": "tuple[]"
        }
      ],
      "stateMutability": "view",
      "type": "function"
    },
    {
      "inputs": [
        {
          "internalType": "address",
          "name": "student",
          "type": "address"
        },
        {
          "internalType": "string",
          "name": "achievementType",
          "type": "string"
        }
      ],
      "name": "getStudentAchievementsByType",
      "outputs": [
        {
          "components": [
            {
              "internalType": "string",
              "name": "activityName",
              "type": "string"
            },
            {
              "internalType": "string",
              "name": "activityType",
              "type": "string"
            },
            {
              "internalType": "uint256",
              "name": "timestamp",
              "type": "uint256"
            },
            {
              "internalType": "address",
              "name": "issuedBy",
              "type": "address"
            }
          ],
          "internalType": "struct EducationNFT.Achievement[]",
          "name": "",
          "type": "tuple[]"
        }
      ],
      "stateMutability": "view",
      "type": "function"
    },
    {
      "inputs": [
        {
          "internalType": "address",
          "name": "student",
          "type": "address"
        }
      ],
      "name": "getStudentTokenIds",
      "outputs": [
        {
          "internalType": "uint256[]",
          "name": "",
          "type": "uint256[]"
        }
      ],
      "stateMutability": "view",
      "type": "function"
    },
    {
      "inputs": [
        {
          "internalType": "address",
          "name": "owner",
          "type": "address"
        },
        {
          "internalType": "address",
          "name": "operator",
          "type": "address"
        }
      ],
      "name": "isApprovedForAll",
      "outputs": [
        {
          "internalType": "bool",
          "name": "",
          "type": "bool"
        }
      ],
      "stateMutability": "view",
      "type": "function"
    },
    {
      "inputs": [
        {
          "internalType": "address",
          "name": "student",
          "type": "address"
        },
        {
          "internalType": "string",
          "name": "activityName",
          "type": "string"
        },
        {
          "internalType": "string",
          "name": "activityType",
          "type": "string"
        },
        {
          "internalType": "string",
          "name": "tokenURI_",
          "type": "string"
        }
      ],
      "name": "mintAchievement",
      "outputs": [
        {
          "internalType": "uint256",
          "name": "",
          "type": "uint256"
        }
      ],
      "stateMutability": "nonpayable",
      "type": "function"
    },
    {
      "inputs": [],
      "name": "name",
      "outputs": [
        {
          "internalType": "string",
          "name": "",
          "type": "string"
        }
      ],
      "stateMutability": "view",
      "type": "function"
    },
    {
      "inputs": [],
      "name": "owner",
      "outputs": [
        {
          "internalType": "address",
          "name": "",
          "type": "address"
        }
      ],
      "stateMutability": "view",
      "type": "function"
    },
    {
      "inputs": [
        {
          "internalType": "uint256",
          "name": "tokenId",
          "type": "uint256"
        }
      ],
      "name": "ownerOf",
      "outputs": [
        {
          "internalType": "address",
          "name": "",
          "type": "address"
        }
      ],
      "stateMutability": "view",
      "type": "function"
    },
    {
      "inputs": [],
      "name": "renounceOwnership",
      "outputs": [],
      "stateMutability": "nonpayable",
      "type": "function"
    },
    {
      "inputs": [
        {
          "internalType": "address",
          "name": "admin",
          "type": "address"
        }
      ],
      "name": "revokeAdmin",
      "outputs": [],
      "stateMutability": "nonpayable",
      "type": "function"
    },
    {
      "inputs": [
        {
          "internalType": "address",
          "name": "from",
          "type": "address"
        },
        {
          "internalType": "address",
          "name": "to",
          "type": "address"
        },
        {
          "internalType": "uint256",
          "name": "tokenId",
          "type": "uint256"
        }
      ],
      "name": "safeTransferFrom",
      "outputs": [],
      "stateMutability": "nonpayable",
      "type": "function"
    },
    {
      "inputs": [
        {
          "internalType": "address",
          "name": "from",
          "type": "address"
        },
        {
          "internalType": "address",
          "name": "to",
          "type": "address"
        },
        {
          "internalType": "uint256",
          "name": "tokenId",
          "type": "uint256"
        },
        {
          "internalType": "bytes",
          "name": "data",
          "type": "bytes"
        }
      ],
      "name": "safeTransferFrom",
      "outputs": [],
      "stateMutability": "nonpayable",
      "type": "function"
    },
    {
      "inputs": [
        {
          "internalType": "address",
          "name": "",
          "type": "address"
        }
      ],
      "name": "schoolAdmins",
      "outputs": [
        {
          "internalType": "bool",
          "name": "",
          "type": "bool"
        }
      ],
      "stateMutability": "view",
      "type": "function"
    },
    {
      "inputs": [
        {
          "internalType": "address",
          "name": "operator",
          "type": "address"
        },
        {
          "internalType": "bool",
          "name": "approved",
          "type": "bool"
        }
      ],
      "name": "setApprovalForAll",
      "outputs": [],
      "stateMutability": "nonpayable",
      "type": "function"
    },
    {
      "inputs": [
        {
          "internalType": "bytes4",
          "name": "interfaceId",
          "type": "bytes4"
        }
      ],
      "name": "supportsInterface",
      "outputs": [
        {
          "internalType": "bool",
          "name": "",
          "type": "bool"
        }
      ],
      "stateMutability": "view",
      "type": "function"
    },
    {
      "inputs": [],
      "name": "symbol",
      "outputs": [
        {
          "internalType": "string",
          "name": "",
          "type": "string"
        }
      ],
      "stateMutability": "view",
      "type": "function"
    },
    {
      "inputs": [
        {
          "internalType": "uint256",
          "name": "tokenId",
          "type": "uint256"
        }
      ],
      "name": "tokenURI",
      "outputs": [
        {
          "internalType": "string",
          "name": "",
          "type": "string"
        }
      ],
      "stateMutability": "view",
      "type": "function"
    },
    {
      "inputs": [
        {
          "internalType": "address",
          "name": "from",
          "type": "address"
        },
        {
          "internalType": "address",
          "name": "to",
          "type": "address"
        },
        {
          "internalType": "uint256",
          "name": "tokenId",
          "type": "uint256"
        }
      ],
      "name": "transferFrom",
      "outputs": [],
      "stateMutability": "nonpayable",
      "type": "function"
    },
    {
      "inputs": [
        {
          "internalType": "address",
          "name": "newOwner",
          "type": "address"
        }
      ],
      "name": "transferOwnership",
      "outputs": [],
      "stateMutability": "nonpayable",
      "type": "function"
    }
  ],
  "bytecode": "0x608060405234801561001057600080fd5b506040518060400160405280601981526020017f456475636174696f6e20416368696576656d656e74204e4654000000000000008152506040518060400160405280600381526020017f4544550000000000000000000000000000000000000000000000000000000000815250816000908161008c91906103de565b50806001908161009c91906103de565b5050506100bb6100b06100c060201b60201c565b6100c860201b60201c565b6104b0565b600033905090565b6000600760009054906101000a900473ffffffffffffffffffffffffffffffffffffffff16905081600760006101000a81548173ffffffffffffffffffffffffffffffffffffffff021916908373ffffffffffffffffffffffffffffffffffffffff1602179055508173ffffffffffffffffffffffffffffffffffffffff168173ffffffffffffffffffffffffffffffffffffffff167f8be0079c531659141344cd1fd0a4f28419497f9722a3daafe3b4186f6b6457e060405160405180910390a35050565b600081519050919050565b7f4e487b7100000000000000000000000000000000000000000000000000000000600052604160045260246000fd5b7f4e487b7100000000000000000000000000000000000000000000000000000000600052602260045260246000fd5b6000600282049050600182168061020f57607f821691505b602082108103610222576102216101c8565b5b50919050565b60008190508160005260206000209050919050565b60006020601f8301049050919050565b600082821b905092915050565b60006008830261028a7fffffffffffffffffffffffffffffffffffffffffffffffffffffffffffffffff8261024d565b610294868361024d565b95508019841693508086168417925050509392505050565b6000819050919050565b6000819050919050565b60006102db6102d66102d1846102ac565b6102b6565b6102ac565b9050919050565b6000819050919050565b6102f5836102c0565b610309610301826102e2565b84845461025a565b825550505050565b600090565b61031e610311565b6103298184846102ec565b505050565b5b8181101561034d57610342600082610316565b60018101905061032f565b5050565b601f8211156103925761036381610228565b61036c8461023d565b8101602085101561037b578190505b61038f6103878561023d565b83018261032e565b50505b505050565b600082821c905092915050565b60006103b560001984600802610397565b1980831691505092915050565b60006103ce83836103a4565b9150826002028217905092915050565b6103e78261018e565b67ffffffffffffffff811115610400576103ff610199565b5b61040a82546101f7565b610415828285610351565b600060209050601f8311600181146104485760008415610436578287015190505b61044085826103c2565b8655506104a8565b601f19841661045686610228565b60005b8281101561047e57848901518255600182019150602085019450602081019050610459565b8683101561049b5784890151610497601f8916826103a4565b8355505b6001600288020188555050505b505050505050565b614a47806104bf6000396000f3fe608060405234801561001057600080fd5b50600436106101a95760003560e01c806368f2f3e0116100f9578063a22cb46511610097578063c87b56dd11610071578063c87b56dd1461050a578063e985e9c51461053a578063f2ccc5431461056a578063f2fde38b1461059a576101a9565b8063a22cb465146104a2578063a48646ea146104be578063b88d4fde146104ee576101a9565b80637725a9fb116100d35780637725a9fb146104155780637e812351146104335780638da5cb5b1461046657806395d89b4114610484576101a9565b806368f2f3e0146103ab57806370a08231146103db578063715018a61461040b576101a9565b806326ae26a61161016657806342842e0e1161014057806342842e0e146103135780634b76d7911461032f578063579f60da1461035f5780636352211e1461037b576101a9565b806326ae26a61461029457806327aed72e146102c45780632d345670146102f7576101a9565b806301ffc9a7146101ae578063039940a4146101de57806306fdde031461020e578063081812fc1461022c578063095ea7b31461025c57806323b872dd14610278575b600080fd5b6101c860048036038101906101c391906131df565b6105b6565b6040516101d59190613227565b60405180910390f35b6101f860048036038101906101f391906133e6565b6105c8565b6040516102059190613615565b60405180910390f35b6102166109ba565b6040516102239190613681565b60405180910390f35b610246600480360381019061024191906136cf565b610a4c565b604051610253919061370b565b60405180910390f35b61027660048036038101906102719190613726565b610a92565b005b610292600480360381019061028d9190613766565b610ba9565b005b6102ae60048036038101906102a991906137b9565b610c09565b6040516102bb9190613895565b60405180910390f35b6102de60048036038101906102d991906136cf565b610ca0565b6040516102ee94939291906138c6565b60405180910390f35b610311600480360381019061030c91906137b9565b610e00565b005b61032d60048036038101906103289190613766565b610ea6565b005b61034960048036038101906103449190613919565b610ec6565b60405161035691906139d4565b60405180910390f35b610379600480360381019061037491906137b9565b6111f9565b005b610395600480360381019061039091906136cf565b61129f565b6040516103a2919061370b565b60405180910390f35b6103c560048036038101906103c091906137b9565b611325565b6040516103d29190613227565b60405180910390f35b6103f560048036038101906103f091906137b9565b611345565b60405161040291906139d4565b60405180910390f35b6104136113fc565b005b61041d611410565b60405161042a9190613615565b60405180910390f35b61044d600480360381019061044891906136cf565b6115f3565b60405161045d94939291906138c6565b60405180910390f35b61046e611763565b60405161047b919061370b565b60405180910390f35b61048c61178d565b6040516104999190613681565b60405180910390f35b6104bc60048036038101906104b79190613a1b565b61181f565b005b6104d860048036038101906104d391906137b9565b611835565b6040516104e59190613615565b60405180910390f35b61050860048036038101906105039190613afc565b611b1a565b005b610524600480360381019061051f91906136cf565b611b7c565b6040516105319190613681565b60405180910390f35b610554600480360381019061054f9190613b7f565b611b8e565b6040516105619190613227565b60405180910390f35b610584600480360381019061057f91906136cf565b611c22565b6040516105919190613c29565b60405180910390f35b6105b460048036038101906105af91906137b9565b611e1b565b005b60006105c182611e9e565b9050919050565b60606000600c60008573ffffffffffffffffffffffffffffffffffffffff1673ffffffffffffffffffffffffffffffffffffffff1681526020019081526020016000208054905090506000805b828110156106d2576000600c60008873ffffffffffffffffffffffffffffffffffffffff1673ffffffffffffffffffffffffffffffffffffffff16815260200190815260200160002082815481106106705761066f613c4b565b5b906000526020600020015490508580519060200120600a60008381526020019081526020016000206001016040516106a89190613d7d565b6040518091039020036106c45782806106c090613dc3565b9350505b508080600101915050610615565b5060008167ffffffffffffffff8111156106ef576106ee6132bb565b5b60405190808252806020026020018201604052801561072857816020015b610715613135565b81526020019060019003908161070d5790505b5090506000805b848110156109ac576000600c60008a73ffffffffffffffffffffffffffffffffffffffff1673ffffffffffffffffffffffffffffffffffffffff168152602001908152602001600020828154811061078a57610789613c4b565b5b906000526020600020015490508780519060200120600a60008381526020019081526020016000206001016040516107c29190613d7d565b60405180910390200361099e57600a60008281526020019081526020016000206040518060800160405290816000820180546107fd90613ca9565b80601f016020809104026020016040519081016040528092919081815260200182805461082990613ca9565b80156108765780601f1061084b57610100808354040283529160200191610876565b820191906000526020600020905b81548152906001019060200180831161085957829003601f168201915b5050505050815260200160018201805461088f90613ca9565b80601f01602080910402602001604051908101604052809291908181526020018280546108bb90613ca9565b80156109085780601f106108dd57610100808354040283529160200191610908565b820191906000526020600020905b8154815290600101906020018083116108eb57829003601f168201915b50505050508152602001600282015481526020016003820160009054906101000a900473ffffffffffffffffffffffffffffffffffffffff1673ffffffffffffffffffffffffffffffffffffffff1673ffffffffffffffffffffffffffffffffffffffff168152505084848151811061098457610983613c4b565b5b6020026020010181905250828061099a90613dc3565b9350505b50808060010191505061072f565b508194505050505092915050565b6060600080546109c990613ca9565b80601f01602080910402602001604051908101604052809291908181526020018280546109f590613ca9565b8015610a425780601f10610a1757610100808354040283529160200191610a42565b820191906000526020600020905b815481529060010190602001808311610a2557829003601f168201915b5050505050905090565b6000610a5782611eff565b6004600083815260200190815260200160002060009054906101000a900473ffffffffffffffffffffffffffffffffffffffff169050919050565b6000610a9d8261129f565b90508073ffffffffffffffffffffffffffffffffffffffff168373ffffffffffffffffffffffffffffffffffffffff1603610b0d576040517f08c379a0000000000000000000000000000000000000000000000000000000008152600401610b0490613e7d565b60405180910390fd5b8073ffffffffffffffffffffffffffffffffffffffff16610b2c611f4a565b73ffffffffffffffffffffffffffffffffffffffff161480610b5b5750610b5a81610b55611f4a565b611b8e565b5b610b9a576040517f08c379a0000000000000000000000000000000000000000000000000000000008152600401610b9190613f0f565b60405180910390fd5b610ba48383611f52565b505050565b610bba610bb4611f4a565b8261200b565b610bf9576040517f08c379a0000000000000000000000000000000000000000000000000000000008152600401610bf090613fa1565b60405180910390fd5b610c048383836120a0565b505050565b6060600c60008373ffffffffffffffffffffffffffffffffffffffff1673ffffffffffffffffffffffffffffffffffffffff168152602001908152602001600020805480602002602001604051908101604052809291908181526020018280548015610c9457602002820191906000526020600020905b815481526020019060010190808311610c80575b50505050509050919050565b600a602052806000526040600020600091509050806000018054610cc390613ca9565b80601f0160208091040260200160405190810160405280929190818152602001828054610cef90613ca9565b8015610d3c5780601f10610d1157610100808354040283529160200191610d3c565b820191906000526020600020905b815481529060010190602001808311610d1f57829003601f168201915b505050505090806001018054610d5190613ca9565b80601f0160208091040260200160405190810160405280929190818152602001828054610d7d90613ca9565b8015610dca5780601f10610d9f57610100808354040283529160200191610dca565b820191906000526020600020905b815481529060010190602001808311610dad57829003601f168201915b5050505050908060020154908060030160009054906101000a900473ffffffffffffffffffffffffffffffffffffffff16905084565b610e08612399565b6000600960008373ffffffffffffffffffffffffffffffffffffffff1673ffffffffffffffffffffffffffffffffffffffff16815260200190815260200160002060006101000a81548160ff0219169083151502179055508073ffffffffffffffffffffffffffffffffffffffff167f631ff1c4e1a02c54b480a34b810e03bcee61fe38efcb243930a7f820914923e260405160405180910390a250565b610ec183838360405180602001604052806000815250611b1a565b505050565b6000600960003373ffffffffffffffffffffffffffffffffffffffff1673ffffffffffffffffffffffffffffffffffffffff16815260200190815260200160002060009054906101000a900460ff1680610f525750610f23611763565b73ffffffffffffffffffffffffffffffffffffffff163373ffffffffffffffffffffffffffffffffffffffff16145b610f91576040517f08c379a0000000000000000000000000000000000000000000000000000000008152600401610f889061400d565b60405180910390fd5b6000610f9d6008612417565b9050610fa96008612425565b610fb3868261243b565b610fbd8184612459565b600060405180608001604052808781526020018681526020014281526020013373ffffffffffffffffffffffffffffffffffffffff16815250905080600a6000848152602001908152602001600020600082015181600001908161102191906141d9565b50602082015181600101908161103791906141d9565b506040820151816002015560608201518160030160006101000a81548173ffffffffffffffffffffffffffffffffffffffff021916908373ffffffffffffffffffffffffffffffffffffffff160217905550905050600b81908060018154018082558091505060019003906000526020600020906004020160009091909190915060008201518160000190816110cd91906141d9565b5060208201518160010190816110e391906141d9565b506040820151816002015560608201518160030160006101000a81548173ffffffffffffffffffffffffffffffffffffffff021916908373ffffffffffffffffffffffffffffffffffffffff1602179055505050600c60008873ffffffffffffffffffffffffffffffffffffffff1673ffffffffffffffffffffffffffffffffffffffff168152602001908152602001600020829080600181540180825580915050600190039060005260206000200160009091909190915055818773ffffffffffffffffffffffffffffffffffffffff167f2a61f547ba5bf846cf758fdf30cfbada376ff8325ca400d2bb5ce0970ca406d8886040516111e49190613681565b60405180910390a38192505050949350505050565b611201612399565b6001600960008373ffffffffffffffffffffffffffffffffffffffff1673ffffffffffffffffffffffffffffffffffffffff16815260200190815260200160002060006101000a81548160ff0219169083151502179055508073ffffffffffffffffffffffffffffffffffffffff167f5481d9ad8ae9261381727027aa19258cb29ffe58222eb81a23cc590c870ff2f460405160405180910390a250565b6000806112ab836124fd565b9050600073ffffffffffffffffffffffffffffffffffffffff168173ffffffffffffffffffffffffffffffffffffffff160361131c576040517f08c379a0000000000000000000000000000000000000000000000000000000008152600401611313906142f7565b60405180910390fd5b80915050919050565b60096020528060005260406000206000915054906101000a900460ff1681565b60008073ffffffffffffffffffffffffffffffffffffffff168273ffffffffffffffffffffffffffffffffffffffff16036113b5576040517f08c379a00000000000000000000000000000000000000000000000000000000081526004016113ac90614389565b60405180910390fd5b600360008373ffffffffffffffffffffffffffffffffffffffff1673ffffffffffffffffffffffffffffffffffffffff168152602001908152602001600020549050919050565b611404612399565b61140e600061253a565b565b6060600b805480602002602001604051908101604052809291908181526020016000905b828210156115ea578382906000526020600020906004020160405180608001604052908160008201805461146790613ca9565b80601f016020809104026020016040519081016040528092919081815260200182805461149390613ca9565b80156114e05780601f106114b5576101008083540402835291602001916114e0565b820191906000526020600020905b8154815290600101906020018083116114c357829003601f168201915b505050505081526020016001820180546114f990613ca9565b80601f016020809104026020016040519081016040528092919081815260200182805461152590613ca9565b80156115725780601f1061154757610100808354040283529160200191611572565b820191906000526020600020905b81548152906001019060200180831161155557829003601f168201915b50505050508152602001600282015481526020016003820160009054906101000a900473ffffffffffffffffffffffffffffffffffffffff1673ffffffffffffffffffffffffffffffffffffffff1673ffffffffffffffffffffffffffffffffffffffff168152505081526020019060010190611434565b50505050905090565b600b818154811061160357600080fd5b906000526020600020906004020160009150905080600001805461162690613ca9565b80601f016020809104026020016040519081016040528092919081815260200182805461165290613ca9565b801561169f5780601f106116745761010080835404028352916020019161169f565b820191906000526020600020905b81548152906001019060200180831161168257829003601f168201915b5050505050908060010180546116b490613ca9565b80601f01602080910402602001604051908101604052809291908181526020018280546116e090613ca9565b801561172d5780601f106117025761010080835404028352916020019161172d565b820191906000526020600020905b81548152906001019060200180831161171057829003601f168201915b5050505050908060020154908060030160009054906101000a900473ffffffffffffffffffffffffffffffffffffffff16905084565b6000600760009054906101000a900473ffffffffffffffffffffffffffffffffffffffff16905090565b60606001805461179c90613ca9565b80601f01602080910402602001604051908101604052809291908181526020018280546117c890613ca9565b80156118155780601f106117ea57610100808354040283529160200191611815565b820191906000526020600020905b8154815290600101906020018083116117f857829003601f168201915b5050505050905090565b61183161182a611f4a565b8383612600565b5050565b60606000600c60008473ffffffffffffffffffffffffffffffffffffffff1673ffffffffffffffffffffffffffffffffffffffff16815260200190815260200160002080549050905060008167ffffffffffffffff81111561189a576118996132bb565b5b6040519080825280602002602001820160405280156118d357816020015b6118c0613135565b8152602001906001900390816118b85790505b50905060005b82811015611b0f576000600c60008773ffffffffffffffffffffffffffffffffffffffff1673ffffffffffffffffffffffffffffffffffffffff168152602001908152602001600020828154811061193457611933613c4b565b5b90600052602060002001549050600a600082815260200190815260200160002060405180608001604052908160008201805461196f90613ca9565b80601f016020809104026020016040519081016040528092919081815260200182805461199b90613ca9565b80156119e85780601f106119bd576101008083540402835291602001916119e8565b820191906000526020600020905b8154815290600101906020018083116119cb57829003601f168201915b50505050508152602001600182018054611a0190613ca9565b80601f0160208091040260200160405190810160405280929190818152602001828054611a2d90613ca9565b8015611a7a5780601f10611a4f57610100808354040283529160200191611a7a565b820191906000526020600020905b815481529060010190602001808311611a5d57829003601f168201915b50505050508152602001600282015481526020016003820160009054906101000a900473ffffffffffffffffffffffffffffffffffffffff1673ffffffffffffffffffffffffffffffffffffffff1673ffffffffffffffffffffffffffffffffffffffff1681525050838381518110611af657611af5613c4b565b5b60200260200101819052505080806001019150506118d9565b508092505050919050565b611b2b611b25611f4a565b8361200b565b611b6a576040517f08c379a0000000000000000000000000000000000000000000000000000000008152600401611b6190613fa1565b60405180910390fd5b611b768484848461276c565b50505050565b6060611b87826127c8565b9050919050565b6000600560008473ffffffffffffffffffffffffffffffffffffffff1673ffffffffffffffffffffffffffffffffffffffff16815260200190815260200160002060008373ffffffffffffffffffffffffffffffffffffffff1673ffffffffffffffffffffffffffffffffffffffff16815260200190815260200160002060009054906101000a900460ff16905092915050565b611c2a613135565b611c33826128da565b611c72576040517f08c379a0000000000000000000000000000000000000000000000000000000008152600401611c69906143f5565b60405180910390fd5b600a6000838152602001908152602001600020604051806080016040529081600082018054611ca090613ca9565b80601f0160208091040260200160405190810160405280929190818152602001828054611ccc90613ca9565b8015611d195780601f10611cee57610100808354040283529160200191611d19565b820191906000526020600020905b815481529060010190602001808311611cfc57829003601f168201915b50505050508152602001600182018054611d3290613ca9565b80601f0160208091040260200160405190810160405280929190818152602001828054611d5e90613ca9565b8015611dab5780601f10611d8057610100808354040283529160200191611dab565b820191906000526020600020905b815481529060010190602001808311611d8e57829003601f168201915b50505050508152602001600282015481526020016003820160009054906101000a900473ffffffffffffffffffffffffffffffffffffffff1673ffffffffffffffffffffffffffffffffffffffff1673ffffffffffffffffffffffffffffffffffffffff16815250509050919050565b611e23612399565b600073ffffffffffffffffffffffffffffffffffffffff168173ffffffffffffffffffffffffffffffffffffffff1603611e92576040517f08c379a0000000000000000000000000000000000000000000000000000000008152600401611e8990614487565b60405180910390fd5b611e9b8161253a565b50565b6000634906490660e01b7bffffffffffffffffffffffffffffffffffffffffffffffffffffffff1916827bffffffffffffffffffffffffffffffffffffffffffffffffffffffff19161480611ef85750611ef78261291b565b5b9050919050565b611f08816128da565b611f47576040517f08c379a0000000000000000000000000000000000000000000000000000000008152600401611f3e906142f7565b60405180910390fd5b50565b600033905090565b816004600083815260200190815260200160002060006101000a81548173ffffffffffffffffffffffffffffffffffffffff021916908373ffffffffffffffffffffffffffffffffffffffff160217905550808273ffffffffffffffffffffffffffffffffffffffff16611fc58361129f565b73ffffffffffffffffffffffffffffffffffffffff167f8c5be1e5ebec7d5bd14f71427d1e84f3dd0314c0f7b2291e5b200ac8c7c3b92560405160405180910390a45050565b6000806120178361129f565b90508073ffffffffffffffffffffffffffffffffffffffff168473ffffffffffffffffffffffffffffffffffffffff16148061205957506120588185611b8e565b5b8061209757508373ffffffffffffffffffffffffffffffffffffffff1661207f84610a4c565b73ffffffffffffffffffffffffffffffffffffffff16145b91505092915050565b8273ffffffffffffffffffffffffffffffffffffffff166120c08261129f565b73ffffffffffffffffffffffffffffffffffffffff1614612116576040517f08c379a000000000000000000000000000000000000000000000000000000000815260040161210d90614519565b60405180910390fd5b600073ffffffffffffffffffffffffffffffffffffffff168273ffffffffffffffffffffffffffffffffffffffff1603612185576040517f08c379a000000000000000000000000000000000000000000000000000000000815260040161217c906145ab565b60405180910390fd5b61219283838360016129fd565b8273ffffffffffffffffffffffffffffffffffffffff166121b28261129f565b73ffffffffffffffffffffffffffffffffffffffff1614612208576040517f08c379a00000000000000000000000000000000000000000000000000000000081526004016121ff90614519565b60405180910390fd5b6004600082815260200190815260200160002060006101000a81549073ffffffffffffffffffffffffffffffffffffffff02191690556001600360008573ffffffffffffffffffffffffffffffffffffffff1673ffffffffffffffffffffffffffffffffffffffff168152602001908152602001600020600082825403925050819055506001600360008473ffffffffffffffffffffffffffffffffffffffff1673ffffffffffffffffffffffffffffffffffffffff16815260200190815260200160002060008282540192505081905550816002600083815260200190815260200160002060006101000a81548173ffffffffffffffffffffffffffffffffffffffff021916908373ffffffffffffffffffffffffffffffffffffffff160217905550808273ffffffffffffffffffffffffffffffffffffffff168473ffffffffffffffffffffffffffffffffffffffff167fddf252ad1be2c89b69c2b068fc378daa952ba7f163c4a11628f55a4df523b3ef60405160405180910390a46123948383836001612a03565b505050565b6123a1611f4a565b73ffffffffffffffffffffffffffffffffffffffff166123bf611763565b73ffffffffffffffffffffffffffffffffffffffff1614612415576040517f08c379a000000000000000000000000000000000000000000000000000000000815260040161240c90614617565b60405180910390fd5b565b600081600001549050919050565b6001816000016000828254019250508190555050565b612455828260405180602001604052806000815250612a09565b5050565b612462826128da565b6124a1576040517f08c379a0000000000000000000000000000000000000000000000000000000008152600401612498906146a9565b60405180910390fd5b806006600084815260200190815260200160002090816124c191906141d9565b507ff8e1a15aba9398e019f0b49df1a4fde98ee17ae345cb5f6b5e2c27f5033e8ce7826040516124f191906139d4565b60405180910390a15050565b60006002600083815260200190815260200160002060009054906101000a900473ffffffffffffffffffffffffffffffffffffffff169050919050565b6000600760009054906101000a900473ffffffffffffffffffffffffffffffffffffffff16905081600760006101000a81548173ffffffffffffffffffffffffffffffffffffffff021916908373ffffffffffffffffffffffffffffffffffffffff1602179055508173ffffffffffffffffffffffffffffffffffffffff168173ffffffffffffffffffffffffffffffffffffffff167f8be0079c531659141344cd1fd0a4f28419497f9722a3daafe3b4186f6b6457e060405160405180910390a35050565b8173ffffffffffffffffffffffffffffffffffffffff168373ffffffffffffffffffffffffffffffffffffffff160361266e576040517f08c379a000000000000000000000000000000000000000000000000000000000815260040161266590614715565b60405180910390fd5b80600560008573ffffffffffffffffffffffffffffffffffffffff1673ffffffffffffffffffffffffffffffffffffffff16815260200190815260200160002060008473ffffffffffffffffffffffffffffffffffffffff1673ffffffffffffffffffffffffffffffffffffffff16815260200190815260200160002060006101000a81548160ff0219169083151502179055508173ffffffffffffffffffffffffffffffffffffffff168373ffffffffffffffffffffffffffffffffffffffff167f17307eab39ab6107e8899845ad3d59bd9653f200f220920489ca2b5937696c318360405161275f9190613227565b60405180910390a3505050565b6127778484846120a0565b61278384848484612a64565b6127c2576040517f08c379a00000000000000000000000000000000000000000000000000000000081526004016127b9906147a7565b60405180910390fd5b50505050565b60606127d382611eff565b60006006600084815260200190815260200160002080546127f390613ca9565b80601f016020809104026020016040519081016040528092919081815260200182805461281f90613ca9565b801561286c5780601f106128415761010080835404028352916020019161286c565b820191906000526020600020905b81548152906001019060200180831161284f57829003601f168201915b50505050509050600061287d612beb565b905060008151036128925781925050506128d5565b6000825111156128c75780826040516020016128af929190614803565b604051602081830303815290604052925050506128d5565b6128d084612c02565b925050505b919050565b60008073ffffffffffffffffffffffffffffffffffffffff166128fc836124fd565b73ffffffffffffffffffffffffffffffffffffffff1614159050919050565b60007f80ac58cd000000000000000000000000000000000000000000000000000000007bffffffffffffffffffffffffffffffffffffffffffffffffffffffff1916827bffffffffffffffffffffffffffffffffffffffffffffffffffffffff191614806129e657507f5b5e139f000000000000000000000000000000000000000000000000000000007bffffffffffffffffffffffffffffffffffffffffffffffffffffffff1916827bffffffffffffffffffffffffffffffffffffffffffffffffffffffff1916145b806129f657506129f582612c6a565b5b9050919050565b50505050565b50505050565b612a138383612cd4565b612a206000848484612a64565b612a5f576040517f08c379a0000000000000000000000000000000000000000000000000000000008152600401612a56906147a7565b60405180910390fd5b505050565b6000612a858473ffffffffffffffffffffffffffffffffffffffff16612ef1565b15612bde578373ffffffffffffffffffffffffffffffffffffffff1663150b7a02612aae611f4a565b8786866040518563ffffffff1660e01b8152600401612ad0949392919061487c565b6020604051808303816000875af1925050508015612b0c57506040513d601f19601f82011682018060405250810190612b0991906148dd565b60015b612b8e573d8060008114612b3c576040519150601f19603f3d011682016040523d82523d6000602084013e612b41565b606091505b506000815103612b86576040517f08c379a0000000000000000000000000000000000000000000000000000000008152600401612b7d906147a7565b60405180910390fd5b805181602001fd5b63150b7a0260e01b7bffffffffffffffffffffffffffffffffffffffffffffffffffffffff1916817bffffffffffffffffffffffffffffffffffffffffffffffffffffffff191614915050612be3565b600190505b949350505050565b606060405180602001604052806000815250905090565b6060612c0d82611eff565b6000612c17612beb565b90506000815111612c375760405180602001604052806000815250612c62565b80612c4184612f14565b604051602001612c52929190614803565b6040516020818303038152906040525b915050919050565b60007f01ffc9a7000000000000000000000000000000000000000000000000000000007bffffffffffffffffffffffffffffffffffffffffffffffffffffffff1916827bffffffffffffffffffffffffffffffffffffffffffffffffffffffff1916149050919050565b600073ffffffffffffffffffffffffffffffffffffffff168273ffffffffffffffffffffffffffffffffffffffff1603612d43576040517f08c379a0000000000000000000000000000000000000000000000000000000008152600401612d3a90614956565b60405180910390fd5b612d4c816128da565b15612d8c576040517f08c379a0000000000000000000000000000000000000000000000000000000008152600401612d83906149c2565b60405180910390fd5b612d9a6000838360016129fd565b612da3816128da565b15612de3576040517f08c379a0000000000000000000000000000000000000000000000000000000008152600401612dda906149c2565b60405180910390fd5b6001600360008473ffffffffffffffffffffffffffffffffffffffff1673ffffffffffffffffffffffffffffffffffffffff16815260200190815260200160002060008282540192505081905550816002600083815260200190815260200160002060006101000a81548173ffffffffffffffffffffffffffffffffffffffff021916908373ffffffffffffffffffffffffffffffffffffffff160217905550808273ffffffffffffffffffffffffffffffffffffffff16600073ffffffffffffffffffffffffffffffffffffffff167fddf252ad1be2c89b69c2b068fc378daa952ba7f163c4a11628f55a4df523b3ef60405160405180910390a4612eed600083836001612a03565b5050565b6000808273ffffffffffffffffffffffffffffffffffffffff163b119050919050565b606060006001612f2384612fe2565b01905060008167ffffffffffffffff811115612f4257612f416132bb565b5b6040519080825280601f01601f191660200182016040528015612f745781602001600182028036833780820191505090505b509050600082602001820190505b600115612fd7578080600190039150507f3031323334353637383961626364656600000000000000000000000000000000600a86061a8153600a8581612fcb57612fca6149e2565b5b04945060008503612f82575b819350505050919050565b600080600090507a184f03e93ff9f4daa797ed6e38ed64bf6a1f0100000000000000008310613040577a184f03e93ff9f4daa797ed6e38ed64bf6a1f0100000000000000008381613036576130356149e2565b5b0492506040810190505b6d04ee2d6d415b85acef8100000000831061307d576d04ee2d6d415b85acef81000000008381613073576130726149e2565b5b0492506020810190505b662386f26fc1000083106130ac57662386f26fc1000083816130a2576130a16149e2565b5b0492506010810190505b6305f5e10083106130d5576305f5e10083816130cb576130ca6149e2565b5b0492506008810190505b61271083106130fa5761271083816130f0576130ef6149e2565b5b0492506004810190505b6064831061311d5760648381613113576131126149e2565b5b0492506002810190505b600a831061312c576001810190505b80915050919050565b6040518060800160405280606081526020016060815260200160008152602001600073ffffffffffffffffffffffffffffffffffffffff1681525090565b6000604051905090565b600080fd5b600080fd5b60007fffffffff0000000000000000000000000000000000000000000000000000000082169050919050565b6131bc81613187565b81146131c757600080fd5b50565b6000813590506131d9816131b3565b92915050565b6000602082840312156131f5576131f461317d565b5b6000613203848285016131ca565b91505092915050565b60008115159050919050565b6132218161320c565b82525050565b600060208201905061323c6000830184613218565b92915050565b600073ffffffffffffffffffffffffffffffffffffffff82169050919050565b600061326d82613242565b9050919050565b61327d81613262565b811461328857600080fd5b50565b60008135905061329a81613274565b92915050565b600080fd5b600080fd5b6000601f19601f8301169050919050565b7f4e487b7100000000000000000000000000000000000000000000000000000000600052604160045260246000fd5b6132f3826132aa565b810181811067ffffffffffffffff82111715613312576133116132bb565b5b80604052505050565b6000613325613173565b905061333182826132ea565b919050565b600067ffffffffffffffff821115613351576133506132bb565b5b61335a826132aa565b9050602081019050919050565b82818337600083830152505050565b600061338961338484613336565b61331b565b9050828152602081018484840111156133a5576133a46132a5565b5b6133b0848285613367565b509392505050565b600082601f8301126133cd576133cc6132a0565b5b81356133dd848260208601613376565b91505092915050565b600080604083850312156133fd576133fc61317d565b5b600061340b8582860161328b565b925050602083013567ffffffffffffffff81111561342c5761342b613182565b5b613438858286016133b8565b9150509250929050565b600081519050919050565b600082825260208201905092915050565b6000819050602082019050919050565b600081519050919050565b600082825260208201905092915050565b60005b838110156134a857808201518184015260208101905061348d565b60008484015250505050565b60006134bf8261346e565b6134c98185613479565b93506134d981856020860161348a565b6134e2816132aa565b840191505092915050565b6000819050919050565b613500816134ed565b82525050565b61350f81613262565b82525050565b6000608083016000830151848203600086015261353282826134b4565b9150506020830151848203602086015261354c82826134b4565b915050604083015161356160408601826134f7565b5060608301516135746060860182613506565b508091505092915050565b600061358b8383613515565b905092915050565b6000602082019050919050565b60006135ab82613442565b6135b5818561344d565b9350836020820285016135c78561345e565b8060005b8581101561360357848403895281516135e4858261357f565b94506135ef83613593565b925060208a019950506001810190506135cb565b50829750879550505050505092915050565b6000602082019050818103600083015261362f81846135a0565b905092915050565b600082825260208201905092915050565b60006136538261346e565b61365d8185613637565b935061366d81856020860161348a565b613676816132aa565b840191505092915050565b6000602082019050818103600083015261369b8184613648565b905092915050565b6136ac816134ed565b81146136b757600080fd5b50565b6000813590506136c9816136a3565b92915050565b6000602082840312156136e5576136e461317d565b5b60006136f3848285016136ba565b91505092915050565b61370581613262565b82525050565b600060208201905061372060008301846136fc565b92915050565b6000806040838503121561373d5761373c61317d565b5b600061374b8582860161328b565b925050602061375c858286016136ba565b9150509250929050565b60008060006060848603121561377f5761377e61317d565b5b600061378d8682870161328b565b935050602061379e8682870161328b565b92505060406137af868287016136ba565b9150509250925092565b6000602082840312156137cf576137ce61317d565b5b60006137dd8482850161328b565b91505092915050565b600081519050919050565b600082825260208201905092915050565b6000819050602082019050919050565b600061381e83836134f7565b60208301905092915050565b6000602082019050919050565b6000613842826137e6565b61384c81856137f1565b935061385783613802565b8060005b8381101561388857815161386f8882613812565b975061387a8361382a565b92505060018101905061385b565b5085935050505092915050565b600060208201905081810360008301526138af8184613837565b905092915050565b6138c0816134ed565b82525050565b600060808201905081810360008301526138e08187613648565b905081810360208301526138f48186613648565b905061390360408301856138b7565b61391060608301846136fc565b95945050505050565b600080600080608085870312156139335761393261317d565b5b60006139418782880161328b565b945050602085013567ffffffffffffffff81111561396257613961613182565b5b61396e878288016133b8565b935050604085013567ffffffffffffffff81111561398f5761398e613182565b5b61399b878288016133b8565b925050606085013567ffffffffffffffff8111156139bc576139bb613182565b5b6139c8878288016133b8565b91505092959194509250565b60006020820190506139e960008301846138b7565b92915050565b6139f88161320c565b8114613a0357600080fd5b50565b600081359050613a15816139ef565b92915050565b60008060408385031215613a3257613a3161317d565b5b6000613a408582860161328b565b9250506020613a5185828601613a06565b9150509250929050565b600067ffffffffffffffff821115613a7657613a756132bb565b5b613a7f826132aa565b9050602081019050919050565b6000613a9f613a9a84613a5b565b61331b565b905082815260208101848484011115613abb57613aba6132a5565b5b613ac6848285613367565b509392505050565b600082601f830112613ae357613ae26132a0565b5b8135613af3848260208601613a8c565b91505092915050565b60008060008060808587031215613b1657613b1561317d565b5b6000613b248782880161328b565b9450506020613b358782880161328b565b9350506040613b46878288016136ba565b925050606085013567ffffffffffffffff811115613b6757613b66613182565b5b613b7387828801613ace565b91505092959194509250565b60008060408385031215613b9657613b9561317d565b5b6000613ba48582860161328b565b9250506020613bb58582860161328b565b9150509250929050565b60006080830160008301518482036000860152613bdc82826134b4565b91505060208301518482036020860152613bf682826134b4565b9150506040830151613c0b60408601826134f7565b506060830151613c1e6060860182613506565b508091505092915050565b60006020820190508181036000830152613c438184613bbf565b905092915050565b7f4e487b7100000000000000000000000000000000000000000000000000000000600052603260045260246000fd5b7f4e487b7100000000000000000000000000000000000000000000000000000000600052602260045260246000fd5b60006002820490506001821680613cc157607f821691505b602082108103613cd457613cd3613c7a565b5b50919050565b600081905092915050565b60008190508160005260206000209050919050565b60008154613d0781613ca9565b613d118186613cda565b94506001821660008114613d2c5760018114613d4157613d74565b60ff1983168652811515820286019350613d74565b613d4a85613ce5565b60005b83811015613d6c57815481890152600182019150602081019050613d4d565b838801955050505b50505092915050565b6000613d898284613cfa565b915081905092915050565b7f4e487b7100000000000000000000000000000000000000000000000000000000600052601160045260246000fd5b6000613dce826134ed565b91507fffffffffffffffffffffffffffffffffffffffffffffffffffffffffffffffff8203613e0057613dff613d94565b5b600182019050919050565b7f4552433732313a20617070726f76616c20746f2063757272656e74206f776e6560008201527f7200000000000000000000000000000000000000000000000000000000000000602082015250565b6000613e67602183613637565b9150613e7282613e0b565b604082019050919050565b60006020820190508181036000830152613e9681613e5a565b9050919050565b7f4552433732313a20617070726f76652063616c6c6572206973206e6f7420746f60008201527f6b656e206f776e6572206f7220617070726f76656420666f7220616c6c000000602082015250565b6000613ef9603d83613637565b9150613f0482613e9d565b604082019050919050565b60006020820190508181036000830152613f2881613eec565b9050919050565b7f4552433732313a2063616c6c6572206973206e6f7420746f6b656e206f776e6560008201527f72206f7220617070726f76656400000000000000000000000000000000000000602082015250565b6000613f8b602d83613637565b9150613f9682613f2f565b604082019050919050565b60006020820190508181036000830152613fba81613f7e565b9050919050565b7f4e6f7420617574686f72697a6564000000000000000000000000000000000000600082015250565b6000613ff7600e83613637565b915061400282613fc1565b602082019050919050565b6000602082019050818103600083015261402681613fea565b9050919050565b60008190508160005260206000209050919050565b60006020601f8301049050919050565b600082821b905092915050565b60006008830261408f7fffffffffffffffffffffffffffffffffffffffffffffffffffffffffffffffff82614052565b6140998683614052565b95508019841693508086168417925050509392505050565b6000819050919050565b60006140d66140d16140cc846134ed565b6140b1565b6134ed565b9050919050565b6000819050919050565b6140f0836140bb565b6141046140fc826140dd565b84845461405f565b825550505050565b600090565b61411961410c565b6141248184846140e7565b505050565b5b818110156141485761413d600082614111565b60018101905061412a565b5050565b601f82111561418d5761415e8161402d565b61416784614042565b81016020851015614176578190505b61418a61418285614042565b830182614129565b50505b505050565b600082821c905092915050565b60006141b060001984600802614192565b1980831691505092915050565b60006141c9838361419f565b9150826002028217905092915050565b6141e28261346e565b67ffffffffffffffff8111156141fb576141fa6132bb565b5b6142058254613ca9565b61421082828561414c565b600060209050601f8311600181146142435760008415614231578287015190505b61423b85826141bd565b8655506142a3565b601f1984166142518661402d565b60005b8281101561427957848901518255600182019150602085019450602081019050614254565b868310156142965784890151614292601f89168261419f565b8355505b6001600288020188555050505b505050505050565b7f4552433732313a20696e76616c696420746f6b656e2049440000000000000000600082015250565b60006142e1601883613637565b91506142ec826142ab565b602082019050919050565b60006020820190508181036000830152614310816142d4565b9050919050565b7f4552433732313a2061646472657373207a65726f206973206e6f74206120766160008201527f6c6964206f776e65720000000000000000000000000000000000000000000000602082015250565b6000614373602983613637565b915061437e82614317565b604082019050919050565b600060208201905081810360008301526143a281614366565b9050919050565b7f546f6b656e20646f6573206e6f74206578697374000000000000000000000000600082015250565b60006143df601483613637565b91506143ea826143a9565b602082019050919050565b6000602082019050818103600083015261440e816143d2565b9050919050565b7f4f776e61626c653a206e6577206f776e657220697320746865207a65726f206160008201527f6464726573730000000000000000000000000000000000000000000000000000602082015250565b6000614471602683613637565b915061447c82614415565b604082019050919050565b600060208201905081810360008301526144a081614464565b9050919050565b7f4552433732313a207472616e736665722066726f6d20696e636f72726563742060008201527f6f776e6572000000000000000000000000000000000000000000000000000000602082015250565b6000614503602583613637565b915061450e826144a7565b604082019050919050565b60006020820190508181036000830152614532816144f6565b9050919050565b7f4552433732313a207472616e7366657220746f20746865207a65726f2061646460008201527f7265737300000000000000000000000000000000000000000000000000000000602082015250565b6000614595602483613637565b91506145a082614539565b604082019050919050565b600060208201905081810360008301526145c481614588565b9050919050565b7f4f776e61626c653a2063616c6c6572206973206e6f7420746865206f776e6572600082015250565b6000614601602083613637565b915061460c826145cb565b602082019050919050565b60006020820190508181036000830152614630816145f4565b9050919050565b7f45524337323155524953746f726167653a2055524920736574206f66206e6f6e60008201527f6578697374656e7420746f6b656e000000000000000000000000000000000000602082015250565b6000614693602e83613637565b915061469e82614637565b604082019050919050565b600060208201905081810360008301526146c281614686565b9050919050565b7f4552433732313a20617070726f766520746f2063616c6c657200000000000000600082015250565b60006146ff601983613637565b915061470a826146c9565b602082019050919050565b6000602082019050818103600083015261472e816146f2565b9050919050565b7f4552433732313a207472616e7366657220746f206e6f6e20455243373231526560008201527f63656976657220696d706c656d656e7465720000000000000000000000000000602082015250565b6000614791603283613637565b915061479c82614735565b604082019050919050565b600060208201905081810360008301526147c081614784565b9050919050565b600081905092915050565b60006147dd8261346e565b6147e781856147c7565b93506147f781856020860161348a565b80840191505092915050565b600061480f82856147d2565b915061481b82846147d2565b91508190509392505050565b600081519050919050565b600082825260208201905092915050565b600061484e82614827565b6148588185614832565b935061486881856020860161348a565b614871816132aa565b840191505092915050565b600060808201905061489160008301876136fc565b61489e60208301866136fc565b6148ab60408301856138b7565b81810360608301526148bd8184614843565b905095945050505050565b6000815190506148d7816131b3565b92915050565b6000602082840312156148f3576148f261317d565b5b6000614901848285016148c8565b91505092915050565b7f4552433732313a206d696e7420746f20746865207a65726f2061646472657373600082015250565b6000614940602083613637565b915061494b8261490a565b602082019050919050565b6000602082019050818103600083015261496f81614933565b9050919050565b7f4552433732313a20746f6b656e20616c7265616479206d696e74656400000000600082015250565b60006149ac601c83613637565b91506149b782614976565b602082019050919050565b600060208201905081810360008301526149db8161499f565b9050919050565b7f4e487b7100000000000000000000000000000000000000000000000000000000600052601260045260246000fdfea2646970667358221220ee9f9761b9b95305e6ff4960ab7b3b48ac45d20fef2278695f2bb4a273a13c9764736f6c634300081c0033",
  "linkReferences": {},
  "deployedLinkReferences": {}
}